:100000000C94ED000C940A010C940A010C940A0162
:100010000C940A010C940A010C940A010C940A0134
:100020000C940A010C940A010C940A010C94DC193A
:100030000C940A010C940A010C940A010C940A0114
:100040000C940A010C940A010C9448250C940A01A2
:100050000C940A010C940A010C940A010C940A01F4
:100060000C940A010C940A016572726F7220777207
:100070006974696E6720746F2066696C650A006533
:1000800072726F72207365656B696E67206F6E2088
:10009000006572726F72206F70656E696E67200006
:1000A0006F70656E696E6720726F6F74206469721D
:1000B0006563746F727920446F6E650A006F7065B6
:1000C0006E696E6720726F6F742064697265637405
:1000D0006F7279206661696C65640A006F70656E85
:1000E000696E672066696C6573797374656D20202D
:1000F0005375636365656465642E0A006F70656E91
:10010000696E672066696C6573797374656D2066C6
:1001100061696C65640A004F70656E696E67207076
:100120006172746974696F6E205375636365656489
:1001300065642E0A006F70656E696E67207061726B
:10014000746974696F6E206661696C65640A004D3C
:100150004D432F534420696E697469616C697A61FB
:1001600074696F6E205375636365656465642E0AF8
:10017000004D4D432F534420696E697469616C6969
:100180007A6174696F6E206661696C65640A0065E6
:1001900072726F72206372656174696E672066693E
:1001A0006C653A20006572726F722064656C6574CC
:1001B000696E672066696C653A200057656C636FED
:1001C0006D652E2E2E003F065B4F666D7D077F6F9F
:1001D0003F065B4F666D7D077F6F11241FBECFEF1B
:1001E000D8E0DEBFCDBF11E0A0E0B1E0E6E1F4E58C
:1001F00002C005900D92A237B107D9F724E0A2E71B
:10020000B1E001C01D92AA3EB207E1F70E94A61B11
:100210000C94092A0C940000FC01218130E0322F5B
:1002200022278081A901482BCA010895FC0123815E
:100230006281862F90E0A0E0B0E0DC01992788275A
:10024000B22B2081822B2181BC01CD01722B08951C
:10025000FC01718360830895FC0173836283518381
:10026000408308958F929F92AF92BF92CF92DF9278
:10027000EF92FF920F931F93CF93DF9300D000D0A4
:10028000CDB7DEB7009709F485C04230510561054E
:10029000710508F484C0FC01A081B18118968C918D
:1002A00018978B3009F040C04A015B01242F392D8B
:1002B0004A2D5B2D60E070E080E090E002E00E945B
:1002C0001626A284B384C484D584E684F784008986
:1002D00011890E944D26ED91FC916894EE24E2F87C
:1002E000F12C8E010F5F1F4F09958823C1F0C98043
:1002F000DA80EB80FC80C114D104E104F10479F0D0
:10030000D701C601805F9F4FAF4FBF404097A10507
:10031000B10528F06C2D7D2D8E2D9F2D44C060E001
:1003200070E080E090E03FC04A015B01242F392D4E
:100330004A2D5B2D60E070E080E090E001E00E94DB
:100340001626A284B384C484D584E684F784008905
:1003500011890E944D26ED91FC916894EE24E1F8FC
:10036000F12C8E010F5F1F4F0995882371F0898151
:100370009A816C01E12CF12C01978F3E9F4F28F45C
:100380006C2D7D2D8E2D9F2D0EC060E070E080E0E5
:1003900090E009C060E070E080E090E004C060E0C0
:1003A00070E080E090E00F900F900F900F90DF9141
:1003B000CF911F910F91FF90EF90DF90CF90BF9062
:1003C000AF909F908F9008952F923F924F925F929F
:1003D0006F927F928F929F92AF92BF92CF92DF9255
:1003E000EF92FF920F931F93CF93DF93CDB7DEB7BA
:1003F00062970FB6F894DEBF0FBECDBF3C011A0165
:100400002B01892B09F4E8C04230510561057105C3
:1004100008F4E4C0D3011A96BC91BD83F301F385BF
:10042000FE83D3011C96BC91BF83F301F585F88749
:10043000D3011E96BC91B987F301F785FA87D301E2
:100440005096BC91BB87F301F189FC87D301ED91F4
:10045000FC9180858B3031F0452B462B472B09F0E2
:100460005DC0B4C0452B462B472B19F451C0140175
:10047000250152014101222D392D4A2D5B2D60E0CD
:1004800070E080E090E002E00E941626AD80BE8021
:10049000CF80D884E984FA840B851C850E944D2680
:1004A000D22EC32E4D875E876F87788B898B9A8B70
:1004B000D301ED91FC910190F081E02D6894EE2440
:1004C000E2F8F12C8E010F5F1F4F0995882309F484
:1004D0002AC189809A80AB80BC8081149104A104D8
:1004E000B104C1F0D501C401805F9F4FAF4FBF4041
:1004F0000897A105B10580F0D501C401885F9F4F21
:10050000AF4FBF400897A105B10508F484C0A9C04A
:1005100081E009C181E007C180E005C152014101CC
:10052000222D392D4A2D5B2D60E070E080E090E0B7
:1005300001E00E941626AD80BE80CF80D884E98479
:10054000FA840B851C850E944D26D22EC32E442E84
:10055000552E862E972EA82EB92ED301ED91FC9103
:100560000190F081E02D6894EE24E1F8F12C8E01E9
:100570000F5F1F4F0995882309F4D5C029803A8061
:100580002114310429F1C1014096089718F1B8EF00
:100590002B16BFEF3B0608F06EC01A821982D301FA
:1005A000ED91FC910480F581E02D2D2D3C2D442D05
:1005B000552D682D792D8A2D9B2D0995412C512C77
:1005C000211431044104510409F0A8CF81E0ABC0EB
:1005D00081E0A9C080E0A7C080E0A5C080E0A3C002
:1005E00019821A821B821C82D301ED91FC91048036
:1005F000F581E02D6894EE24E2F8F12C8E010F5F76
:100600001F4F2D2D3C2D4D855E856F8578898989FD
:100610009A8909957DCFF30186A597A5A0A9B1A9CF
:10062000892B8A2B8B2B09F45FC0DACF19821A82AF
:100630001B821C82D301ED91FC910480F581E02D99
:100640006894EE24E2F8F12C8E010F5F1F4F2D2DE0
:100650003C2D4D855E856F85788989899A890995B4
:1006600006CFF30186A597A5A0A9B1A9892B8A2B4E
:100670008B2BE1F619C01A821982D301ED91FC91FE
:100680000480F581E02D6894EE24E1F8F12C8E01D0
:100690000F5F1F4F2D2D3C2D442D552D682D792D8D
:1006A0008A2D9B2D099592CFF30126A637A640AA45
:1006B00051AA19821A821B821C820190F081E02DBE
:1006C0000480F581E02D6894EE24E2F8F12C8E018F
:1006D0000F5F1F4F2D2D3C2D4D855E856F857889D1
:1006E00089899A890995C3CE26A637A640AA51AA18
:1006F00019821A821B821C820190F081E02D0480F5
:10070000F581E02D6894EE24E2F8F12C8E010F5F64
:100710001F4F2D2D3C2D4D855E856F8578898989EC
:100720009A890995F5CE62960FB6F894DEBF0FBE92
:10073000CDBFDF91CF911F910F91FF90EF90DF9090
:10074000CF90BF90AF909F908F907F906F905F9071
:100750004F903F902F9008952F923F924F925F922B
:100760006F927F928F929F92AF92BF92CF92DF92C1
:10077000EF92FF920F931F93CF93DF93CDB7DEB726
:10078000A9970FB6F894DEBF0FBECDBF9BA38AA377
:100790004EA35FA368A779A70B871C872D873E8789
:1007A000009709F414C2DC01ED91FC9111972081AE
:1007B00031813D8F2C8F448155815DA34CA31A96C6
:1007C0005C911A975C8B1B968C911B978D8B1C965A
:1007D0009C911C979E8B1D96AC91AF8BAAA1BBA13F
:1007E0001E96BC91B88FAAA1BBA11F96BC91B98FD0
:1007F000AAA1BBA15096BC91BA8FAAA1BBA1519648
:10080000BC91BB8FAAA1BBA19E964D905D906D90AF
:100810007C90D197B085BB8BBB30A9F4EAA1FBA13A
:1008200082899389A489B5899C01AD015695479524
:100830003795279556954795379527952E8F3F8F56
:1008400048A359A310C0EAA1FBA182899389A48976
:10085000B5899C01AD0156954795379527952E8F03
:100860003F8F48A359A3AAA1BBA19E961D921D929A
:100870001D921C92D1972E8D3F8D48A159A1211513
:1008800031054105510509F41DC12F83388749877A
:100890005A871F86188A198A1A8A32E04316510429
:1008A0006104710478F08E8D9F8DA8A1B9A14816BE
:1008B00059066A067B0658F0412C512C3201689487
:1008C00041F805C0412C512C3201689441F89B89B4
:1008D0009B3061F553014201242D392D4A2D5B2DAA
:1008E00060E070E080E090E002E00E941626AC88B4
:1008F000BD88CE88DF88E88CF98C0A8D1B8D0E941C
:100900004D26D22EC32EB42EA52E962E872E382EEF
:10091000292E6894EE24E2F8F12C8E010D5F1F4F12
:10092000EC8DFD8D099581116BC156C153014201BA
:10093000242D392D4A2D5B2D60E070E080E090E0A1
:1009400001E00E941626AC88BD88CE88DF88E88C3E
:10095000F98C0A8D1B8D0E944D26D22EC32EB42EEB
:10096000A52E962E872E382E292E6894EE24E1F897
:10097000F12C8E010F5F1F4FEC8DFD8D09958111BC
:1009800049C12FC12B853C854D855E85232B242BAA
:10099000252B49F4AAA1BBA19E964D925D926D9222
:1009A0007C92D1979CC02F85388949895A89232BFD
:1009B000242B252B49F48FEF9FEFAFEFBFE08B8304
:1009C0009C83AD83BE8308C02F85388949895A89A5
:1009D0002B833C834D835E836894EE24E2F8F12CF4
:1009E0008E010D5F1F4F2D2D3C2D4B2D5A2D692D46
:1009F000782D832D922DECA1FDA10995811138C090
:100A0000D9C02B853C854D855E85232B242B252B3A
:100A100049F4AAA1BBA19E964D925D926D927C92E3
:100A2000D1975DC02F85388949895A89232B242B7A
:100A3000252B29F44FEF5FEF5A83498304C08F853C
:100A400098899A8389836894EE24E1F8F12C8E01C9
:100A50000F5F1F4F2D2D3C2D4B2D5A2D692D782DBD
:100A6000832D922DECA1FDA10995882309F4A2C044
:100A70002B853C854D855E85215031094109510901
:100A80002B873C874D875E874F86588A698A7A8A8A
:100A90008F819885A985BA850197A109B1098F83AE
:100AA0009887A987BA879FEF491A590A690A790A6C
:100AB0002F81388549855A85232B242B252B09F036
:100AC000ECCE04C01F86188A198A1A8A8B859C85E9
:100AD000AD85BE85892B8A2B8B2B09F06BC02EA18F
:100AE0003FA148A559A5223031054105510508F41B
:100AF0007DC03B893B3099F58F859889A989BA8952
:100B00008B839C83AD83BE832EA13FA148A559A5AD
:100B100049015A01392D4A2D5B2D60E070E080E0DB
:100B200090E002E00E941626AC88BD88CE88DF885F
:100B3000E88CF98C0A8D1B8D0E944D266894EE245A
:100B4000E2F8F12C8E010D5F1F4FECA1FDA109957C
:100B5000882381F16F85788989899A8961C02F8579
:100B600038893A8329838EA19FA1A8A5B9A54C01F4
:100B70005D01282F392D4A2D5B2D60E070E080E06B
:100B800090E001E00E941626AC88BD88CE88DF8800
:100B9000E88CF98C0A8D1B8D0E944D266894EE24FA
:100BA000E1F8F12C8E010F5F1F4FECA1FDA109951B
:100BB000811121C04F85588969897A898AA19BA1B1
:100BC0000E94E40160E070E080E090E029C060E015
:100BD00070E080E090E024C060E070E080E090E0B1
:100BE0001FC060E070E080E090E01AC06F857889F7
:100BF00089899A8915C06F85788989899A8910C0F1
:100C00008B819C81AD81BE81892B8A2B8B2B09F036
:100C10003FCFB8CE89819A81892B09F039CFF1CEA7
:100C2000A9960FB6F894DEBF0FBECDBFDF91CF916E
:100C30001F910F91FF90EF90DF90CF90BF90AF90FA
:100C40009F908F907F906F905F904F903F902F90EC
:100C5000089580E190E008959C01FC018191255F59
:100C60003F4F80FB879587F99191890FE217F30732
:100C7000C1F708958F929F92AF92BF92CF92DF9269
:100C8000EF92FF920F931F93CF93DF93CDB7DEB711
:100C900068970FB6F894DEBF0FBECDBF4230510546
:100CA0006105710508F45AC04C010097A1F142504A
:100CB0005109610971096A017B0100E010E09801A6
:100CC000498BDA8AEB8AFC8A0D8B1E8B2F8B388F2F
:100CD000DC0158960D911C915997A02EB12EC12C74
:100CE000D12CE12CF12C00E010E029893A894B89C4
:100CF0005C8960E070E080E090E00E94BD25F40136
:100D0000A28CB38CC48CD58CE68CF78C00A111A17D
:100D10000E944D2608C020E030E040E050E060E056
:100D200070E080E090E08E010F5F1F4FE0E1D8019E
:100D30001D92EA95E9F7F401E08CF18C0190F081C5
:100D4000E02D0680F781E02DA12CB12C0F2EF9E2C9
:100D5000CF2EF6E0DF2EF02D099501C080E06896D9
:100D60000FB6F894DEBF0FBECDBFDF91CF911F91BC
:100D70000F91FF90EF90DF90CF90BF90AF909F903A
:100D80008F9008952F923F924F925F926F927F9231
:100D90008F929F92AF92BF92CF92DF92EF92FF928B
:100DA0000F931F93CF93DF93CDB7DEB72D970FB679
:100DB000F894DEBF0FBECDBFF701A080B180A28145
:100DC000B3819096B383A283DC01FC90B5EEFB1651
:100DD00011F0F11003C0148281E030C14501DC0143
:100DE0001B96FC90BFE0FB1248C0F480FF2029F066
:100DF000DC011D96EC90FE14A9F00F2EF1E3FF2EFE
:100E0000F02DD5011D92FA94E9F7DC011D96FC90B6
:100E1000F482F50101A712A723A734A745A756A777
:100E200067A770ABDC012C912F7330E021503109A2
:100E30004DE0429FB001439F700D11242DE0E4E08E
:100E4000F1E0DE01119601900D922A95E1F76F31E4
:100E5000710508F4D6C00FC021918C01020F111D3D
:100E6000D8012C91D5012D935D01E617F70719F0F4
:100E7000E417F50789F781E0E1C07F01772E662E40
:100E8000552E442E332E222E6C01F50180818823AD
:100E900049F0C6010E942C06D70114969C91981720
:100EA00009F479C081E3F50111928A95E9F7D5013A
:100EB00099960C9399979A961C939A979B962C9235
:100EC0009B979C963C929C979D964C929D979E9644
:100ED0005C929E979F966C929F97D0967C92F6011B
:100EE00090819032E9F0A50180E004C031969081B4
:100EF0009032B9F0DA019D93AD01D6011C962C9188
:100F000023FF0AC0208121542A3130F49A01215054
:100F10003109905ED9019C938F5F883039F701C009
:100F200080E0F5019081953011F495EE9083D60123
:100F300018969C911897903251F191E0980F2EE2FB
:100F4000F501E80FF11D208318962C912032E1F075
:100F5000F6018C5F04C0319620852032B9F0A401DF
:100F6000490F511DDA012C93D6011C963C9134FF98
:100F700007C0308531543A3118F4205EDA012C93E1
:100F80009F5F9813E8CF03C0892F01C0892FF50117
:100F9000E80FF11D1082F6018385D50190968C93A0
:100FA000C6014A960E940C01A0E0B0E0F50181A3C1
:100FB00092A3A3A3B4A3C60144960E940C01A0E08F
:100FC000B0E0DC0199278827F50141A152A163A176
:100FD00074A1842B952BA62BB72B81A392A3A3A33B
:100FE000B4A3C6014C960E941601D50195966D9347
:100FF0007D938D939C93989781E0F701858380E0A2
:101000001DC02981FC01E20FF11D2081F501E60FD1
:10101000F71F2083FE013296DB011196AA0EBB1E3C
:101020004FE150E0461B570B01E010E00C0F1D1F75
:10103000400F511FBE01625F7F4F1ACF2D960FB632
:10104000F894DEBF0FBECDBFDF91CF911F910F91FE
:10105000FF90EF90DF90CF90BF90AF909F908F90D8
:101060007F906F905F904F903F902F9008952F92B8
:101070003F924F925F926F927F928F929F92AF9228
:10108000BF92CF92DF92EF92FF920F931F93CF9375
:10109000DF93CDB7DEB7A5970FB6F894DEBF0FBECE
:1010A000CDBF009709F46BC16115710509F469C1E1
:1010B0006B01FC010190F081E02D848195819BA35F
:1010C0008AA3DB0199969C9099979A968C909A970F
:1010D0009B967C909B979C966C909C979D965C9021
:1010E0009D979E964C909E979F963C909F97D096EA
:1010F0002C907DA36CA3FB0101900020E9F73197B0
:101100005F01A61AB70A1A2DC50199270C966DE042
:1011100070E00E946D2569A34BE050E060E270E052
:10112000CE0101960E9489266EE270E0C6010E94FF
:10113000D1260097D1F0FC0121812223B1F0BC011E
:101140006F5F7F4FFB0101900020E9F73197E61BAD
:10115000F70BAA941A2D1E1BE43008F0E3E04E2F83
:1011600050E0CE0109960E9480261930D0F4412F1C
:1011700050E0B601CE0101960E948026D6018C91E6
:101180008E3261F511968C9111978E3231F4129650
:101190008C91811123C019A221C081111FC019A2F5
:1011A0001DC088E0F601DE01119601900D928A952E
:1011B000E1F7F60181A1803A28F4982F92959F706B
:1011C000905D04C0982F92959F709F599F838F7058
:1011D0008A3010F4805D01C08F5988878981853EEF
:1011E00011F485E08983FE013C9685E1DF011D92C3
:1011F0008A95E9F7F60180A18C8781A192A1A3A12C
:10120000B4A1BD0188279927CE0145960E942801E7
:10121000D60191966D917C919297CE014B960E944A
:101220002801F60145A156A167A170A5CE014D96F2
:101230000E942C0189A1F0E28F9FA0011124242F8C
:10124000352F40E050E060E070E080E090E0A92CB5
:10125000B82CC72CD62CE52CF42C032D122D0E9473
:101260004D266894EE24E5F8F12C8E010F5F1F4F98
:10127000EAA1FBA10995882309F48CC0C8010E944A
:101280002C06A82EF9A1FF2309F47DC0DF2E0F2E16
:10129000FDE0BF2EF02D0F2EFFE0CF2EF02D40E20F
:1012A00050E06FEF70E0CE0101960E9489268D2DEF
:1012B00090E00197B89EF001B99EF00D11248CA129
:1012C0009DA1E80FF91FBF0181E001C0319691E0B7
:1012D000980FDB014D91BD0121E030E02C0F3D1F47
:1012E000280F311DD9014C938E5F21E030E02C0F87
:1012F0003D1F290F311DD9011C928B3009F445C0C7
:101300008A3111F48CE142C09081992311F08F3120
:10131000E8F2D982B9A1BD1103C08D2D8064898303
:10132000CC86AE861D861B8E1C8E6894EE24E5F856
:10133000F12C8E010F5F1F4F292D382D472D562D73
:10134000652D742D832D922DEAA1FBA10995292DE0
:10135000382D472D562D652D742D832D922DA0E20D
:101360000E945626922E832E742E652E562E472EC0
:10137000382E292EDA94D11092CF81E00BC080E074
:1013800009C080E007C081E005C08EE09081911126
:101390009DCFBFCFA5960FB6F894DEBF0FBECDBFD1
:1013A000DF91CF911F910F91FF90EF90DF90CF9041
:1013B000BF90AF909F908F907F906F905F904F9075
:1013C0003F902F9008952F923F924F925F926F928D
:1013D0007F928F929F92AF92BF92CF92DF92EF92C5
:1013E000FF920F931F93CF93DF93CDB7DEB7A097F4
:1013F0000FB6F894DEBF0FBECDBFFC018B01892B69
:1014000009F4DCC14115510509F4E1C1DA010D907F
:101410000020E9F79D01241B350B255F3F4FA5EC0C
:10142000BEE40E94A325969587959695879521E021
:10143000280F28A3D80193964D915D916D917C91D1
:1014400096974C8B5D8B6E8B7F8B452B462B472B5A
:1014500009F040C0A081B18118968C918B30C9F4FD
:1014600002A513A524A535A50C8B1D8B2E8B3F8BB8
:10147000188E198E1A8E1B8E1C8E1D8E1E8E1F8E20
:101480001C861D861E861F86188A198A1A8A1B8A40
:1014900031C012A11C8723A12D8734A13E8745A10D
:1014A0004F8756A1588B67A1698B70A57A8B81A550
:1014B0008B8B928D988FA38DA98FB48DBA8F058D4C
:1014C0000B8F168D1C8F278D2D8F30A13E8F41A144
:1014D0004F8F10C0188E198E1A8E1B8E1C8E1D8E6B
:1014E0001E8E1F8E1C861D861E861F86188A198AD0
:1014F0001A8A1B8AFB83EA834C845D846E847F8412
:10150000888899882A883B881C82242D352D462D71
:10151000572D682D792D822D932DA88CB98CCA8CCE
:10152000DB8CEC8CFD8C0E8D1F8D0E946B2609F0E0
:10153000DFC06C897D898E899F89672B682B692B19
:1015400009F42AC1682D792D822D932DA0E00E94E7
:10155000742609F449C14C895D896E897F898A8125
:101560009B810E943201611571058105910509F089
:1015700037C101E010E020E030E04C895D896E89E0
:101580007F898A819B810E94AC032B013C016115FC
:1015900071058105910509F4FFC0DC01CB010297BB
:1015A000A109B1098C019D0140E050E0BA018C8392
:1015B0001D832E833F83488759876A877B87AA814B
:1015C000BB8158960D911C915997A02EB12EC12C1C
:1015D000D12CE12CF12C00E010E02C813D814E81DA
:1015E0005F8160E070E080E090E00E94BD25EA81CC
:1015F000FB81A28CB38CC48CD58CE68CF78C00A1BB
:1016000011A10E944D262C873D874E875F87688BEE
:10161000798B8A8B9B8BB301A201CF010E943A0682
:10162000C4C08C899D89AE89BF890297A109B1097F
:101630001C012D01AA81BB8158960D911C915997CF
:10164000A02EB12EC12CD12CE12CF12C00E010E009
:10165000222D332D442D552D60E070E080E090E088
:101660000E94BD25EA81FB81A28CB38CC48CD58CF1
:10167000E68CF78C00A111A10E944D262C873D8796
:101680004E875F87688B798B8A8B9B8B08C01C8603
:101690001D861E861F86188A198A1A8A1B8AAA81A5
:1016A000BB8158968D909C905997282D392D40E0FC
:1016B00050E060E070E080E090E0AC84BD84CE84D7
:1016C000DF84E888F9880A891B890E944D26288FC3
:1016D000398F4A8F5B8F6C8F7D8F8E8F9F8F4A2CB7
:1016E0005B2C6C2C7D2C8E2C9F2C202E312E1C8262
:1016F000AA81BB81ED91FC910190F081E02DEE2457
:10170000E394F12C8E010F5F1F4F242D352D462DB4
:10171000572D682D792D822D932D09958823E1F180
:101720008981853E11F081111AC0BC81BF5FBC83E5
:10173000E8A1BE17D0F5242D352D462D572D682D47
:10174000792D822D932DA0E20E945626422E532EF3
:10175000642E752E862E972E282E392ED6CE242D29
:10176000352D462D572D682D792D822D932DA0E2F4
:101770000E9456262C873D874E875F87688B798B22
:101780008A8B9B8B422E532E642E752E862E972E7F
:10179000282E392E1C82B9CE20E030E040E050E007
:1017A00060E070E080E090E02AC02C853D854E85A9
:1017B0005F85688979898A899B8921C020E030E02A
:1017C00040E050E060E070E080E090E018C020E091
:1017D00030E040E050E060E070E080E090E00FC07A
:1017E0006C8B7D8B8E8B9F8B0C891D892E893F89FD
:1017F000023011052105310508F013CF48CFA0961E
:101800000FB6F894DEBF0FBECDBFDF91CF911F9111
:101810000F91FF90EF90DF90CF90BF90AF909F908F
:101820008F907F906F905F904F903F902F90089592
:101830002F923F924F925F926F927F928F929F92E0
:10184000AF92BF92CF92DF92EF92FF920F931F93CE
:10185000CF93DF93CDB7DEB7C555D1090FB6F89456
:10186000DEBF0FBECDBF009709F447C2DC0114965E
:101870002D913C911597232B09F442C216962D9178
:101880003C911797232B09F43EC2209123023091FB
:101890002402232B09F43AC280E090E073C2CE0107
:1018A00001960E940C0198AF8FABCE0104960E9466
:1018B0000C019AAF89AFBB812A96BFAF2A97EE8100
:1018C0002B96EFAF2B97CE0107960E940C012D9619
:1018D0009FAF8EAF2D97CE0109960E940C017C011F
:1018E000CE010C960E940C0129969FAF8EAF2997CE
:1018F000CE0146960E9416015B016C01CE014A960C
:101900000E94160127966CAF7DAF8EAF9FAF2797D1
:10191000CE0182960E94160165966CAF7DAF8EAFA8
:101920009FAF6597A114B104C104D10439F4E11447
:10193000F10409F41EC25701C12CD12C2996EEAC3A
:10194000FFAC2997E114F10451F0870120E030E069
:1019500027960CAF1DAF2EAF3FAF27970BC0279632
:101960004CAD5DAD6EAD7FAD2797452B462B472B1C
:1019700009F4FFC12B965FAD2B97A52FB0E02796FA
:101980002CAD3DAD4EAD5FAD27970E94B2258601CF
:10199000750129AD3AADE21AF30A01091109E61AF7
:1019A000F70A080B190B8FA998AD01972D964EAD2C
:1019B0005FAD2D97440F551F42955295507F542788
:1019C000407F5427840F951F6FA978AD0E94592539
:1019D000E61AF70A01091109C801B7012A964FADA5
:1019E0002A97042F10E020E030E0A90198010E941E
:1019F000812561962CAF3DAF4EAF5FAF6197DA01A5
:101A0000C901853F5FE09507A105B10508F4B1C1A3
:101A1000853F9F4FA105B10528F486E0D3011896B4
:101A20008C9303C08BE0F30180878CE2E5E2F2E067
:101A3000DF011D928A95E9F70FA918AD780100E042
:101A400010E020E030E0A901EFA6F8AA09AB1AAB3C
:101A50002BAB3CAB4DAB5EABA601950160E070E0FB
:101A6000CB01ABAE3CAF4DAF5EAF6FAF21967FAF5A
:101A7000219722968FAF229723969FAF2397AE2C64
:101A8000BF2CC12CD12CE12CF12C00E010E060E047
:101A900070E080E090E00E94BD2520932502309305
:101AA00026024093270250932802609329027093E4
:101AB0002A0280932B0290932C02E9ADFAADAF017C
:101AC0002E2F352F40E050E060E070E080E090E0A5
:101AD0000E94BD25A22CB32CC42CD52CEEA0FEA4B4
:101AE000082D192D0E944D262EA739AF542E452EB4
:101AF000362E272E8BAF66969FAF669720932D02CA
:101B000030932E0240932F025093300260933102A3
:101B100070933202809333029093340261962CAD1D
:101B20003DAD4EAD5FAD61972E5F3F4F4F4F5F4F65
:101B3000D30118968C91863029F064E070E080E043
:101B400090E004C062E070E080E090E0E3E2F2E068
:101B50000E944925628B738B848B958BAFA8B8ACA0
:101B6000B78AA68A2A96CFAC2A97CA9CC001CB9C7A
:101B7000900D1124918F808FD30118968C9186300F
:101B800009F056C02996EEADFFAD2997AF01AFA47D
:101B9000B8A8C12CD12CE12CF12C00E010E02E2FA4
:101BA000352F40E050E060E070E080E090E00E947F
:101BB000BD252B96AFAC2B97B12C0E94BD25AEA4B2
:101BC000B9ACC52CD42CE32CF22C0BAD66961FAD12
:101BD00066970E944D26A22EB32EC42ED52EE62E39
:101BE000F72EA82F192FE3E2F2E022A333A344A398
:101BF00055A366A377A380A791A72D962EAD3FADE1
:101C00002D971901332D40E050E060E070E080E056
:101C100090E005E00E9416260A2F0E944D26228F92
:101C2000338F448F558F668F778F80A391A3A8C081
:101C30000F2EF3E28F2EF2E09F2EF02DAFA4B8A866
:101C4000C12CD12CE12CF12C00E010E02B962FAD13
:101C50002B9730E040E050E060E070E080E090E002
:101C60000E94BD252796CCACDDACEEACFFAC27972F
:101C700056016701E12CF12C8701AEA2BFA2C8A6D4
:101C8000D9A6EAA6FBA60CA71DA7E12CF12C00E023
:101C900010E00E94BD25AEA4B9ACC52CD42CE32C19
:101CA000F22C0BAD66961FAD66970E944D26D401AF
:101CB0005A962C935A975B963C935B975C964C9301
:101CC0005C975D965C935D975E966C935E975F966E
:101CD0007C935F9790968C93909791969C93919715
:101CE0006596ACACBDACCEACDFAC65979A96AD92C8
:101CF000BD92CD92DC929D9743C080E090E042C0BF
:101D000080E090E03FC080E090E03CC03C01E3E236
:101D1000F2E082E3DF011D928A95E9F77182608229
:101D2000F30181849284A384B484282D392D4A2D13
:101D30005B2D60E070E080E090E009E00E941626F4
:101D4000222E332E442E552E6EA37EA7882E992E3A
:101D5000ABE00E9456260190F081E02D0F2EF5E2B7
:101D6000EF2EF12CF02D8E010F5F1F4F0995811181
:101D700096CD109224021092230280E090E002C0DF
:101D800083E292E0CB5ADF4F0FB6F894DEBF0FBE6E
:101D9000CDBFDF91CF911F910F91FF90EF90DF901A
:101DA000CF90BF90AF909F908F907F906F905F90FB
:101DB0004F903F902F900895CF93DF93009781F03D
:101DC0006115710581F0EB0128A124FD0FC0209160
:101DD000E4013091E501232B61F080E090E027C021
:101DE00080E090E024C080E090E021C080E090E0BE
:101DF0001EC021E3FB01A6EEB1E001900D922A95F1
:101E0000E1F7E4EEF1E09183808313AA14AA15AA06
:101E100016AA17AA10AE11AE12AEEB0189A19AA1B3
:101E2000ABA1BCA183AF94AFA5AFB6AFCF01DF919B
:101E3000CF910895009719F0FC0111821082089546
:101E40002F923F924F925F926F927F928F929F92CA
:101E5000AF92BF92CF92DF92EF92FF920F931F93B8
:101E6000CF93DF93CDB7DEB766970FB6F894DEBF9A
:101E70000FBECDBF9E8B8D8B788B6F875C8B4B8B12
:101E8000009709F463C2672B09F463C2452B09F478
:101E900063C2DC01D396BC91B983FC01F4A9FA8337
:101EA000DC01D596BC91BB83FC01F6A9FC83DC0167
:101EB000D796BC91BD83FC01F0ADFE83DC01D996C1
:101EC000BC91BF83FC01F2ADF887FC0187A190A50E
:101ED000A1A5B2A51C012D0129813A814B815C810C
:101EE0006D817E818F819885A22CB32CC42CD52C3A
:101EF000E12CF12C00E010E00E946B2611F008F0BC
:101F00002EC20190F081E02DE08CF18CFA8AE98AF2
:101F1000AD89BE89DB960D911D912D913C91DE9787
:101F20000B871C872D873E87C7010197E980FA80C0
:101F3000E822F922FA86E986012B022B032B09F00D
:101F400089C093960D911D912D913C9196970B8789
:101F50001C872D873E87012B022B032B11F529812E
:101F60003A818F819885A0E00E94742609F0FAC119
:101F700001E010E020E030E040E050E0BA01CF01A5
:101F80000E94AC036B877C878D879E87ED89FE89D5
:101F900063A374A385A396A3672B682B692B09F40D
:101FA000E4C1AD89BE89D3961C91D397D496BC91D8
:101FB000ED89FE8905A9F6A867A970AD212F3B2FF1
:101FC000402F5F2D81AD92ADA0E00E94742609F4F0
:101FD00041C0C12EDB2EE02E09891A892801612C0F
:101FE000712C8B849C84AD84BE842BC0C418D5080E
:101FF000E608F708B501A401AD89BE898D919C91D1
:102000000E9432016115710581059105C1F4C11469
:10201000D104E104F10409F0ABC101E010E020E0DB
:1020200030E0B501A401ED89FE89808191810E9493
:10203000AC03611571058105910509F49CC14B0143
:102040005C01C414D504E604F70480F68B869C86F4
:10205000AD86BE862B883C88912C812CAD89BE89AB
:102060006D907C906114710409F447C00B851C8548
:102070002D853E85023011052105310508F446C045
:10208000D901C8010297A109B1097C018D0120E0A5
:1020900030E0A9018983FA820B831C832D833E8360
:1020A0004F835887D30158960D911C915997A02EB4
:1020B000B12EC92CD92CE92CF92C092D192D2981E7
:1020C0003A814B815C81692D792D892D992D0E9452
:1020D000BD25F301A28CB38CC48CD58CE68CF78C17
:1020E00000A111A10E944D26A22EB32EC42ED52EE2
:1020F000E62EF72E082F192F11C0A92CB92CC92CA8
:10210000D92CE92CF92C092D192D08C0A92CB92C92
:10211000C92CD92CE92CF92C092D192D89899A89DA
:1021200029853A85821B930B21018215930508F4BA
:102130002C01E985FA85AF012E2F352F492D592D18
:10214000692D792D892D992D0E944D26D301ED9170
:10215000FC910480F581E02D72010F8518890995A5
:10216000882309F493C0EF85F889E40DF51DF88BF9
:10217000EF8724183508A201242D352F492D592D1C
:10218000692D792D892D992DAD89BE89D396AC9075
:10219000D397D496BC90D497D596CC90D597D69615
:1021A000DC90D697D796EC90D797D896FC90D89796
:1021B000D9960C91D997DA961C91DA970E944D2600
:1021C000D3962C93D397D4963C93D497D5964C938F
:1021D000D597D6965C93D697D7966C93D797D89683
:1021E0007C93D897D9968C93D997DA969C93DA9763
:1021F000E985FA854E0E5F1EE988FA884E145F0461
:10220000A0F14B855C856D857E858D919C910E94AA
:102210003201611571058105910509F5211431041B
:10222000B9F001E010E020E030E04B855C856D8581
:102230007E85AD89BE898D919C910E94AC036B8790
:102240007C878D879E87672B682B692B09F096C04A
:10225000ED89FE8913AE14AE15AE16AE17C06B87AE
:102260007C878D879E8789861A86EB84FC840D8502
:102270001E85AD89BE89DB96ED92FD920D931C9370
:10228000DE972114310409F0E9CE00C0ED89FE8902
:10229000B3A9A4A995A886A867A970AD47A050A422
:1022A00061A472A48301720120E030E0A901498297
:1022B000FA820B831C832D833E834F8358872B2FF9
:1022C0003A2F492D582D81AD92ADA42CBF2CC02E94
:1022D000D12EE12CF12C00E010E00E946B2689F158
:1022E00080F1B7A3A0A791A682A6BF016E5F7F4F22
:1022F000808191810E943708811123C0AD89BE89F8
:10230000D3962D903C90D49724183508E981D39624
:10231000EC93D397FA81D496FC93D497EB80D5961F
:10232000EC92D597FC80D696FC92D697D7961C92C5
:10233000D797D8961C92D897D9961C92D997DA96A7
:102340001C928B899C898219930927C08FEF9FEF7C
:1023500024C08FEF9FEF21C08FEF9FEF1EC08FEF44
:102360009FEF1BC08FEF9FEF18C080E090E015C07B
:102370008FEF9FEF12C080E090E00FC00B851C85AF
:102380002D853E85AD89BE89DB960D931D932D93DA
:102390003C93DE9789861A8661CE66960FB6F894CE
:1023A000DEBF0FBECDBFDF91CF911F910F91FF9088
:1023B000EF90DF90CF90BF90AF909F908F907F90E5
:1023C0006F905F904F903F902F9008952F923F9283
:1023D0004F925F926F927F928F929F92AF92BF9235
:1023E000CF92DF92EF92FF920F931F93CF93DF93E1
:1023F000CDB7DEB760970FB6F894DEBF0FBECDBF86
:10240000009709F4A0C14D875E876F87788B1C0108
:10241000DC0193962D913D914D915C9196972D8382
:102420003E834F835887232B242B252B09F0BFC1D4
:102430002D853E854F855889232B242B252B09F488
:1024400031C1CEC14D845E846F8478884D815E81B8
:102450006F817885D1018D919C910E9432016B0131
:102460007C01611571058105910571F048185908C5
:102470006A087B086D837E838F8398878414950414
:10248000A604B70418F347C084149504A604B7043F
:1024900068F02D813E814F81588521153105410518
:1024A000510509F458C169017A0135C0D501C4014B
:1024B0000197A109B109BC01CD01640D751D861DEF
:1024C000971DA50194010E94812589019A014D81E2
:1024D0005E816F817885D1018D919C910E94AC03C2
:1024E0006B017C01672B682B692B09F42EC12D81B0
:1024F0003E814F815885232B242B252B41F4D1017C
:102500009396CD92DD92ED92FC92969704C0CD8089
:10251000DE80EF80F8842D853E854F855889D10176
:1025200097962D933D934D935C939A97232B242B51
:10253000252B09F031C1F10113A214A215A216A294
:10254000B1016E5F7F4F808191810E94370888239F
:1025500009F45BC1B701A601D1018D919C910E9444
:10256000E401A0C084149504A604B70408F49AC03A
:10257000F101808091808114910409F493C0F2E00C
:10258000CF16D104E104F10408F48CC0B701A60110
:10259000C4010E9432012B013C01D401ED91FC9158
:1025A00080858B30E9F58FEF9FEFAFEFBFE0898338
:1025B0009A83AB83BC83560167012A2D3B2D4C2D9A
:1025C0005D2D60E070E080E090E002E00E94162661
:1025D000D4011A96AC901A971B96BC901B971C9628
:1025E000CC901C971D96DC901D971E96EC901E9724
:1025F0001F96FC901F9750960C91509751961C91E6
:102600000E944D260480F581E02D6894EE24E2F8C6
:10261000F12C8E010F5F1F4F0995811139C042C007
:102620008FEF9FEF9A838983560167012A2D3B2DF7
:102630004C2D5D2D60E070E080E090E001E00E94B4
:102640001626D4011A96AC901A971B96BC901B972D
:102650001C96CC901C971D96DC901D971E96EC90B6
:102660001E971F96FC901F9750960C91509751966D
:102670001C910E944D260480F581E02D6894EE2483
:10268000E1F8F12C8E010F5F1F4F0995882351F05F
:10269000411451046104710429F0B301A201C40181
:1026A0000E94E4014D855E856F8578899A01AB01B2
:1026B00060E070E0CB012D833E834F8358876987AC
:1026C0007A878B879C87D101D396AC90D397D49689
:1026D000BC90D497D596CC90D597D696DC90D697CB
:1026E000D796EC90D797D896FC90D897D9960C911E
:1026F000D997DA961C91DA9760E070E080E090E07C
:102700000E946B2620F5D3962C93D397D4963C93B6
:10271000D497D5964C93D597D6965C93D697D79663
:102720001C92D797D8961C92D897D9961C92D99775
:10273000DA961C92DA97DB961D921D921D921C92DE
:10274000DE9781E062C080E060C080E05EC081E032
:102750005CC080E05AC0D501C4010197A109B1094C
:10276000BC01CD01640D751D861D971DA501940149
:102770000E94812589019A0140E050E0BA01F101EF
:10278000808191810E94AC036B017C01672B682BD7
:10279000692B09F0B4CEDDCFB1016E5F7F4FD1015F
:1027A0008D919C910E9437088111DCCE2EC0DC01F6
:1027B000ED91FC91808D918D4C01A12CB12C2D853A
:1027C0003E854F85588982169306A406B50608F4FF
:1027D00039CE29013A01CD80DE80EF80F8849BCE8E
:1027E000DC01ED91FC91808D918D4C01A12CB12CDF
:1027F0002D853E854F85588982169306A406B50619
:1028000008F420CE29013A01A6CF60960FB6F894BD
:10281000DEBF0FBECDBFDF91CF911F910F91FF9013
:10282000EF90DF90CF90BF90AF909F908F907F9070
:102830006F905F904F903F902F900895AF92BF920E
:10284000CF92DF92EF92FF920F931F93CF93DF937C
:10285000009709F454C06115710509F452C0413064
:1028600051F018F04230B1F04EC0FB01C080D18071
:10287000E280F3801DC0FC01C3A8D4A8E5A8F6A897
:10288000FB010081118122813381C00ED11EE21E25
:10289000F31E0EC0FC01C7A0D0A4E1A4F2A4FB016A
:1028A0000081118122813381C00ED11EE21EF31EF0
:1028B0005B01EC018FA198A5A9A5BAA58C159D0572
:1028C000AE05BF0538F4B701A601CE010E94E6119E
:1028D0008823D1F097018601CBAA1CAB2DAB3EAB70
:1028E0001FAA18AE19AE1AAE1BAE1CAE1DAE1EAEA0
:1028F000F501C082D182E282F38281E005C080E0EE
:1029000003C080E001C080E0DF91CF911F910F9163
:10291000FF90EF90DF90CF90BF90AF900895CF934E
:10292000DF930097B1F061157105B1F0FB0120A1B3
:1029300024FF15C02091720130917301232B91F077
:102940002091AB013091AC01232B79F080E090E035
:1029500025C080E090E022C080E090E01FC080E0D1
:1029600090E01CC0C2E7D1E002C0CBEAD1E0DE01BA
:10297000129621E3FB0101900D922A95E1F79983CC
:102980008883FB0181A192A1A3A1B4A18BAB9CABD5
:10299000ADABBEAB18AE1FAA8C2F9D2FDF91CF9190
:1029A0000895009719F0FC01118210820895FC012E
:1029B000892B61F083A194A1A5A1B6A183AB94ABAF
:1029C000A5ABB6AB10AE17AA81E0089580E00895DC
:1029D0002F923F924F925F926F927F928F929F922F
:1029E000AF92BF92CF92DF92EF92FF920F931F931D
:1029F000CF93DF93CDB7DEB7EE970FB6F894DEBF77
:102A00000FBECDBF009709F449C16115710509F4E6
:102A100047C19EAF8DAFFC0140805180F201208CF8
:102A2000318CFC0167A870AC6214730420F00E9422
:102A3000D714912C38C1EDADFEAD03A914A925A979
:102A400036A909AB1AAB2BAB3CAB9E012F5F3F4FB6
:102A500086E0F90111928A95E9F781E3FB01119271
:102A60008A95E9F77A83698309A91AA92BA93CA950
:102A7000012B022B032B09F0E7C0D201ED91FC9151
:102A8000119780858B3059F49A960D911D912D9157
:102A90003C919D9709AB1AAB2BAB3CABD5C0F20177
:102AA000228D338D82A193A11901281A390ACCC035
:102AB00081010619170918AB0FA7930140E050E0F8
:102AC00060E070E0CB016FA238A749A75AA76BA7B7
:102AD0007CA78DA79EA749A95AA96BA97CA9452BBC
:102AE000462B472B09F540E050E060E070E080E0C5
:102AF00090E0D2019296AC9092979396BC90939767
:102B00009496CC9094979596DC9095979696EC90A9
:102B100096979796FC90979798960C919897999678
:102B20001C910E944D2652C041145104A1F109A9E3
:102B30001AA92BA93CA90230110521053105A0F1E4
:102B4000D20158960D911C915997A02EB12EC12CEF
:102B5000D12CE12CF12C00E010E02DA93EA94FA9C9
:102B600058AD60E070E080E090E00E94BD25F20189
:102B7000A28CB38CC48CD58CE68CF78C00A111A1EF
:102B80000E944D26A22EB32EC42ED52EE62EF72E51
:102B9000082F192F11C0A12CB12CC12CD12CE12C44
:102BA000F12C00E010E008C0A12CB12CC12CD12CDC
:102BB000E12CF12C00E010E02FA138A549A55AA581
:102BC0006BA57CA58DA59EA50E944D261C821B820F
:102BD000D201ED91FC910280F381E02D8E010F5F17
:102BE0001F4F48010F2EF2ECAF2EF6E0BF2EF02D56
:102BF000CFA4D8A86894EE24E5F8F12C0A5F1F4F03
:102C00000995882309F44EC08B819C81680E791E3A
:102C10006214730468F149A95AA96BA97CA9C2017D
:102C20000E94320169AB7AAB8BAB9CAB672B682BF4
:102C3000692B41F49E8091101FC08DAD9EAD0E9406
:102C4000D71431C0612C712C89A99AA9ABA9BCA950
:102C50000297A109B1098C019D0140E050E0BA0141
:102C60008DAB1EAB2FAB38AF49AF5AAF6BAF7CAF5C
:102C70008E81882309F41CCF29A93AA94BA95CA904
:102C8000ADADBEADD3962D933D934D935C93D6974A
:102C9000D8967C926E92D7979E8005C0912C03C0E7
:102CA000912C01C0982E892DEE960FB6F894DEBFB8
:102CB0000FBECDBFDF91CF911F910F91FF90EF908D
:102CC000DF90CF90BF90AF909F908F907F906F904C
:102CD0005F904F903F902F9008954F925F926F9228
:102CE0007F928F929F92AF92BF92CF92DF92EF929C
:102CF000FF920F931F93CF93DF934C016B01EA0177
:102D0000892B09F476C06115710509F474C0FB01C3
:102D10008081882309F471C0209709F470C08F3234
:102D200019F4FFEFCF1ADF0A81E3FE0111928A95B1
:102D3000E9F780E188A3F6018081882309F461C066
:102D4000412C512CBE01C4010E948F148C01892B8F
:102D500009F459C06FE270E0C6010E949026009706
:102D600041F0E82EEC185C01FFEFAF1ABF0AF12C1E
:102D70002DC0F60101900020E9F73197EC19FD090B
:102D8000EE2E5601AE0EB11CF2CFFE0101900020D6
:102D9000E9F731973F016C1A7D0A6E147F04B1F494
:102DA000A301BE01C6010E94B426892B79F4C80193
:102DB0000E94D114F601E60DF71D8081882329F1C8
:102DC00098A1892F807194FD08C020C0BE01C80160
:102DD0000E94E8148111D9CF03C06501042D152D7F
:102DE000C8010E94D114F60180818111ABCF81E02E
:102DF0000DC080E00BC080E009C080E007C080E02B
:102E000005C081E003C080E001C081E0DF91CF9187
:102E10001F910F91FF90EF90DF90CF90BF90AF90F8
:102E20009F908F907F906F905F904F900895AF929A
:102E3000BF92CF92DF92EF92FF921F93CF93DF93D7
:102E4000009709F449C06115710509F447C0FB01F9
:102E50002081222309F444C0EA017B016C01209700
:102E600009F440C0BE01C6010E94E814182F88234F
:102E700059F0BE01C7010E949B26892B99F7C60114
:102E80000E94D71412E02FC0F601A080B18081E328
:102E9000FE0111928A95E9F74FE150E0B701CE01AA
:102EA0000E94C226AE01B601C5010E94E30929A70E
:102EB0003AA74BA75CA76DA77EA78FA798ABA0E00A
:102EC0000E94742681F0BE01C5010E94370811E0FE
:102ED000811109C010E007C010E005C010E003C078
:102EE00010E001C010E0812FDF91CF911F91FF9082
:102EF000EF90DF90CF90BF90AF9008953F924F92A8
:102F00005F926F927F928F929F92AF92BF92CF9279
:102F1000DF92EF92FF920F931F93CF93DF93CDB782
:102F2000DEB72E970FB6F894DEBF0FBECDBF3C01C3
:102F3000FB01892B09F477C0309709F476C0D1A43E
:102F4000C2A4B3A4A4A495A486A457A440A82D2DDC
:102F50003C2D4B2D5A2D692D782D852D942DA0E0DB
:102F60000E94742609F463C0FE87ED870F2EF5EEEC
:102F70003F2EF02DD301ED91FC910190F081E02DD9
:102F80000F2EFCE0EF2EF12CF02D8E010F5F1F4F66
:102F90002D2D3C2D4B2D5A2D692D782D852D942DC1
:102FA0000995882309F444C03982D301ED91FC913D
:102FB0000480F581E02D2D2D3C2D4B2D5A2D692DB2
:102FC000782D852D942D0995882391F18C858F304E
:102FD000A1F42D2D3C2D4B2D5A2D692D782D852DAD
:102FE000942DA0E20E945626D22EC32EB42EA52EDA
:102FF000962E872E582E492EBDCFED85FE8541A1F8
:1030000052A163A174A1411551056105710549F0F3
:10301000C3010E94E40191E0811101C090E0892F79
:1030200007C081E005C080E003C080E001C080E00F
:103030002E960FB6F894DEBF0FBECDBFDF91CF91B5
:103040001F910F91FF90EF90DF90CF90BF90AF90C6
:103050009F908F907F906F905F904F903F900895DA
:10306000CF93DF9381E191E00E942725C0E0D0E07B
:10307000FE01E653FB4F80814AE066ED74E090E08C
:103080000E94DC2686ED94E00E9427258CE20E94B7
:103090001725FE01E052FB4F80810E94172580E238
:1030A0000E9417252196CA30D10511F78AE00E94A7
:1030B0001725DF91CF91089588E09DE390938900D3
:1030C00080938800E1E8F0E0808188608083AFE64B
:1030D000B0E08C9182608C938081856080830895BC
:1030E0001092590280E090E025E6FC01E653FB4F88
:1030F0001082FC01E052FB4F208301968A3091053B
:10310000A1F708950F93CF9383B7817F83BF0E9468
:10311000F51F811106C081E791E00E943625C0E0CD
:1031200005C08FE491E00E943625C1E000E02DED5E
:1031300032E24FE851E26EEE70E280EC9EE10E94D6
:10314000971D9093C9048093C804892BD9F40FEF7D
:103150002DED32E24FE851E26EEE70E280EC9EE13E
:103160000E94971D9093C9048093C804892B31F461
:1031700085E391E00E943625C0E004C087E191E03C
:103180000E9436258091C8049091C9040E94180CB1
:103190009093890480938804892B31F48CEF90E01C
:1031A0000E943625C0E004C08CED90E00E943625D8
:1031B0004BE854E068E171E08091880490918904C3
:1031C0000E946D166BE874E08091880490918904E8
:1031D0000E948F149093D5048093D404892B31F4EA
:1031E0008DEB90E00E943625C0E004C080EA90E0BC
:1031F0000E9436252FEF84E39CE0215080409040D0
:10320000E1F700C000008C2FCF910F910895AF928D
:10321000BF92CF92DF92EF92FF920F931F93CF93C3
:10322000DF93CDB7DEB7EB970FB6F894DEBF0FBED6
:10323000CDBF7C01D62EC72E0091D4041091D504A9
:10324000A0908804B090890419C0B701CE010B96F4
:103250000E949B26892B91F4C8010E94D714BE01BD
:10326000655F7F4FC5010E94DC0E9093C704809379
:10327000C604892B61F0BB24B39414C0BE01655F02
:103280007F4FC8010E94E8148111DFCF78C081E927
:1032900090E00E943625C7010E9427258AE00E94FF
:1032A0001725B12C10925A0210925B0210925C0208
:1032B00010925D0242E06AE572E08091C60490914E
:1032C000C7040E941E14811111C08FE790E00E9474
:1032D0003625C7010E9427258AE00E941725809184
:1032E000C6049091C7040E941A0FB12C8AE191E0A4
:1032F0000E9427258D2D9C2D0E9427258AE00E9463
:103300001725CF92DF9282E291E09F938F931F92D5
:103310008AE08F938E010F5F1F4F1F930F930E94C0
:10332000012786E291E00E942725C8010E942725F7
:103330008AE00E941725F80101900020E9F73197F3
:10334000AF01401B510BB8018091C6049091C70496
:103350000E94200FF80101900020E9F73197E01B4F
:10336000F10B0FB6F894DEBF0FBECDBF8E179F07CF
:1033700059F088E690E00E943625B12C05C01092E5
:10338000C7041092C60483CF8091C6049091C704ED
:103390000E941A0F8B2DEB960FB6F894DEBF0FBE6E
:1033A000CDBFDF91CF911F910F91FF90EF90DF90F4
:1033B000CF90BF90AF9008951F920F920FB60F92CB
:1033C0001124CF92DF92EF92FF920F931F932F93CE
:1033D0003F934F935F936F937F938F939F93AF939D
:1033E000BF93EF93FF93CF93DF931F92CDB7DEB7D9
:1033F00088E391E00E942725809155028F5F80939A
:103400005502823009F055C00E943018809159024F
:10341000882309F441C000E010E0DD24D3940F2E8E
:10342000FCE2EF2EF12CF02DC12CF801E653FB4FFE
:1034300080814AE066ED74E090E00E94DC26E6EDD3
:10344000F4E001900020E9F73197F182E082F80181
:10345000E052FB4F8081898341E050E0BE016F5F05
:103460007F4F86ED94E00E94A42686ED94E00E94B2
:10347000272566ED74E084E491E00E94071981112C
:1034800001C0DC2C0F5F1F4F8091590290E008179C
:1034900019075CF2DD2029F08DE491E00E942725D8
:1034A00004C081E591E00E9427250E9470181092C7
:1034B00055020F90DF91CF91FF91EF91BF91AF91A6
:1034C0009F918F917F916F915F914F913F912F913C
:1034D0001F910F91FF90EF90DF90CF900F900FBE54
:1034E0000F901F901895ECE7F0E080818064808356
:1034F000EAE7F0E08081876880830895ECE7F0E0F8
:103500009081907F8F70892B8083EAE7F0E0808143
:1035100080648083808186FDFDCF809178009091CA
:10352000790008950F931F93CF938C0180E00E9440
:103530003224C3E09801ADECBCEC0E94A325969523
:10354000879596958795969587959C01220F331FB1
:10355000880F991F880F991F880F991F820F931F3B
:10356000B801681B790B8C2F0E941E249801ADECCA
:10357000BCEC0E94A3258C0116950795169507951E
:1035800016950795C150B0F6CF911F910F910895F0
:103590000F931F93CF938C0180E00E94ED24C3E032
:1035A0009801ADECBCEC0E94A32596958795969565
:1035B0008795969587959C01220F331F880F991F39
:1035C000880F991F880F991F820F931FB801681BDE
:1035D000790B8C2F0E94D9249801ADECBCEC0E9491
:1035E000A3258C01169507951695079516950795B1
:1035F000C150B0F6CF911F910F910895CF9380E005
:103600000E943224C0E060E48C2F0E940424CF5F2B
:10361000C430C9F7CF910895CF9380E00E94ED2484
:10362000C0E060E48C2F0E94BF24CF5FC430C9F794
:10363000CF9108950F931F93CF93DF93CDB7DEB74C
:10364000E1970FB6F894DEBF0FBECDBF0091D40452
:103650001091D50415C064E471E0CE0101960E947A
:103660009B26892B69F4C8010E94D714BE016F5FA5
:103670007F4F80918804909189040E947E1709C031
:10368000BE016F5F7F4FC8010E94E8148111E3CF34
:103690001EC0AE014F5F5F4F64E471E08091D404BF
:1036A0009091D5040E94171781110CC08FE891E00A
:1036B0000E94362584E491E00E9427258AE00E943A
:1036C000172511C00E94FE1A0E940C1B0CC085EA2F
:1036D00091E00E94362584E491E00E9427258AE04B
:1036E0000E941725D6CFE1960FB6F894DEBF0FBE25
:1036F000CDBFDF91CF911F910F91089580E00E947F
:1037000032246FE380E00E9404246CE581E00E9493
:10371000042464E582E00E94042469E783E00E94B7
:103720000424089580E00E94ED246FE380E00E946D
:10373000BF246CE581E00E94BF2464E582E00E9422
:10374000BF2469E783E00E94BF24089567E081E019
:103750000E94FB2367E081E00E94B6240E94FE1ACB
:103760000E940C1B14B881E085B90E940B250E94B1
:10377000731A0E945C188BEB91E00E9436250E9420
:10378000821880936A02882331F180E090E00E94E1
:10379000921A80E090E00E94C81A78942FEF89E690
:1037A00098E1215080409040E1F700C000008091F6
:1037B0005702909158020E94921A8091560290E00E
:1037C0000E94C81A0E9470180F2EF2E7FF2EF02DEB
:1037D0000CE615E71CC0F8940E94FE1A0E940C1B10
:1037E0002FEF84E39CE0215080409040E1F700C03F
:1037F00000000E9445240E9400252FEF84E39CE0F6
:10380000215080409040E1F700C00000E4CF1899BB
:103810008BC180E691E00E9427252FEF83ED90E396
:10382000215080409040E1F700C0000018997CC111
:103830000E941A1B0E947E1B0E94921B2FEF89E69A
:1038400098E1215080409040E1F700C00000809155
:103850005702909158020E94921A8091560290E06D
:103860000E94C81A61C12196CE010197813091054D
:1038700009F475C020F0029709F4E1C050C180E05E
:103880000E947E1A909369028093680220918604B8
:10389000211110C08536910508F458C020916202AC
:1038A000309163022817390708F050C081E08093F7
:1038B00086044CC08536910508F448C02091620208
:1038C000309163028217930708F040C0409159027B
:1038D00050E09C01ADECBCEC0E94A3259695879529
:1038E0009695879596958795FA01E653FB4F8083C9
:1038F000E0915902F0E0E052FB4F0083E091590261
:10390000F0E0E653FB4F808180935602809159028C
:103910008F5F8093590280915702909158020196CF
:103920009093580280935702109286040E94921A34
:103930008091560290E00E94C81A2FE78CE293E033
:10394000215080409040E1F700C000008091680263
:1039500090916902909363028093620284CF81E028
:103960000E947E1A909367028093660220918704DA
:10397000211110C08536910508F458C020916002CD
:10398000309161022817390708F050C081E0809318
:1039900087044CC08536910508F448C02091600228
:1039A000309161028217930708F040C0409159029C
:1039B00050E09C01ADECBCEC0E94A3259695879548
:1039C0009695879596958795FA01E653FB4F8083E8
:1039D000E0915902F0E0E052FB4FF082E091590291
:1039E000F0E0E653FB4F80818093560280915902AC
:1039F0008F5F8093590280915702909158020196EF
:103A00009093580280935702109287040E94921A52
:103A10008091560290E00E94C81A2FE78CE293E052
:103A2000215080409040E1F700C000008091660284
:103A300090916702909361028093600214CF82E0BC
:103A40000E947E1A909365028093640220918A04FA
:103A5000211110C08536910508F458C020915E02EE
:103A600030915F022817390708F050C081E0809339
:103A70008A044CC08536910508F448C020915E0246
:103A800030915F028217930708F040C040915902BD
:103A900050E09C01ADECBCEC0E94A3259695879567
:103AA0009695879596958795FA01E653FB4F808307
:103AB000E0915902F0E0E052FB4F1083E09159028F
:103AC000F0E0E653FB4F80818093560280915902CB
:103AD0008F5F80935902809157029091580201960E
:103AE000909358028093570210928A040E94921A6F
:103AF0008091560290E00E94C81A2FE78CE293E072
:103B0000215080409040E1F700C0000080916402A5
:103B10009091650290935F0280935E0278CEC330ED
:103B2000D1050CF4A0CE73CEC1E0D0E09DCE6F9253
:103B30007F928F929F92AF92BF92CF92DF92EF923D
:103B4000FF920F931F93CF93DF93CDB7DEB76097AC
:103B50000FB6F894DEBF0FBECDBF009771F16115AF
:103B6000710571F104307CF500230CF474C0390147
:103B70004A015B016C0120E10202C0011124825460
:103B80009E4FE92FEE0FEE0B6894EE24E4F8F12C33
:103B90008E010F5F1F4F282F392F4E2F5E2F6E2F54
:103BA0007E2F8E2F9E2FF6010995882379F08D8127
:103BB000811137C080E090E054C080E090E051C0B7
:103BC00080E090E04EC080E090E04BC080E090E06C
:103BD00048C00BE612E081E1D8011D928A95E9F711
:103BE000F801D182C082B382A282958284827782D8
:103BF00066828D818087CE0109960E941601D801C8
:103C000019966D937D938D939C931C97CE010D9681
:103C10000E941601F801658776878787908BC80117
:103C200020C0809173028823A1F280E090E019C047
:103C3000EBE6F2E011E1DF011D921A95E9F79183BD
:103C400080837383628355834483378326838FEF16
:103C50008087CF0106C0E0917302EE2349F380E034
:103C600090E060960FB6F894DEBF0FBECDBFDF9137
:103C7000CF911F910F91FF90EF90DF90CF90BF9069
:103C8000AF909F908F907F906F9008958EBD0DB4F0
:103C900007FEFDCF8DB58F778DBD08958FEF8EBD5B
:103CA0000DB407FEFDCF8DB58F778DBD8EB5089510
:103CB000FF920F931F93CF93DF93C82FD42F152F0D
:103CC000062FF72E0E944E1E8C2F80640E94461EE7
:103CD0008F2D0E94461E802F0E94461E812F0E941B
:103CE000461E8D2F0E94461ECC2319F0C83029F0A5
:103CF00008C085E90E94461E0FC087E80E94461E44
:103D00000BC08FEF0E94461E07C00E944E1E8F3FC1
:103D100029F4C150D1F702C0CAE0F7CFDF91CF91AB
:103D20001F910F91FF900895EF92FF920F931F93B1
:103D300080917D0281111EC020917E0230917F0210
:103D400040918002509181026091820270918302C1
:103D5000E12C6894FF24F1F806E812E080918402D7
:103D6000909185020E948F21882329F081E0809321
:103D70007D0201C081E01F910F91FF90EF900895A7
:103D80002F923F924F925F926F927F928F929F926B
:103D9000AF92BF92CF92DF92EF92FF920F931F9359
:103DA000CF93DF93CDB7DEB76D970FB6F894DEBF34
:103DB0000FBECDBF29833A834B835C836D837E83A3
:103DC0008F8398871D8B0C8B2701EF2809F4F3C094
:103DD000612C6894772471F80F2EF6E82F2EF4E00A
:103DE0003F2EF02D7B8E6A8E29813A8131703A8B7D
:103DF000298B40E050E060E070E0CB0129873A87F2
:103E00004B875C876D877E878F87988B29813A8166
:103E10004B815C816D817E818F819885A984BA8474
:103E2000C12CD12CE12CF12C00E010E00E94622684
:103E300029873B8B642E752E6E8B7F8B888F998F95
:103E40008A8C9B8C69897A89861A970A4814590446
:103E500008F44201A0907E02B0907F02C0908002E0
:103E6000D0908102E0908202F0908302009184025F
:103E70001091850229853B89462D572D6E897F89B2
:103E8000888D998D0E946B2609F465C00E94941E4E
:103E9000882309F491C02A9880917C0282FF10C087
:103EA00029853B89462D572D6E897F89888D998D6F
:103EB00009E00E943126642F752F422F532F04C032
:103EC00049855B89662D772D81E10E94581E8823E4
:103ED00019F02A9A80E070C00E944E1E8E3FE1F7D2
:103EE00086E892E09D8F8C8F0E944E1EEC8DFD8D9A
:103EF0008193FD8FEC8F2E163F06B1F7F985F09375
:103F00007E022B8920937F02609280027092810250
:103F10003E89309382024F8940938302588D50939B
:103F20008402698D6093850269897A896A577D4F19
:103F3000A4018C899D890E9480268C899D89880D89
:103F4000991D9D8B8C8B0E944E1E0E944E1E2A9A9C
:103F50000E944E1E0FC069897A896A577D4FA4015D
:103F60008C899D890E948026EC89FD89E80DF91DC8
:103F7000FD8BEC8B48185908940140E050E060E05C
:103F800070E080E090E0A980BA80CB80DC80ED809A
:103F9000FE800F8118850E944D2629833A834B832A
:103FA0005C836D837E838F8398874114510409F06D
:103FB0001BCF81E001C081E06D960FB6F894DEBFA3
:103FC0000FBECDBFDF91CF911F910F91FF90EF906A
:103FD000DF90CF90BF90AF909F908F907F906F9029
:103FE0005F904F903F902F9008959F92AF92BF9215
:103FF000CF92DF92EF92FF920F931F93CF93DF93B5
:10400000239A259A229A24982A9A83E58CBD8DB505
:104010008E7F8DBD10927C021AE00E944E1E1150C0
:10402000E1F72A98C0E0D2E040E050E0BA0180E039
:104030000E94581E813029F02197B1F72A9A012F4A
:10404000C0C04AEA51E060E070E088E00E94581E7B
:10405000C82FC47082FD1DC00E944E1E0E944E1EBD
:104060000E944E1E082F017080FFABC00E944E1EA2
:104070008A3A09F0A5C080917C02826080937C021C
:10408000C0E0D0E8912CA12CB12C6894CC24C6F8C7
:1040900014C040E050E0BA0187E30E94581E40E09F
:1040A00050E0BA0189E20E94581E82FDE9CF80915A
:1040B0007C02816080937C02E3CF80917C02982F08
:1040C0009370C9F081FF05C0D92CEA2CFB2C0C2D74
:1040D00004C0D12CE12CF12C00E040E050E0BA010A
:1040E00087E30E94581E4D2D5E2D6F2D702F89E2A3
:1040F0000E94581E06C040E050E0BA0181E00E94D4
:10410000581E082F017080FF05C02197B1F62A9A2A
:10411000012F57C0C0917C02C1FF17C040E050E0A2
:10412000BA018AE30E94581E882311F02A9A49C0D6
:104130000E944E1E86FF03C0C460C0937C020E9492
:104140004E1E0E944E1E0E944E1E40E052E060E055
:1041500070E080E10E94581E882311F02A9A31C035
:104160002A9A8CB58C7F8CBD8DB581608DBD8FEF0B
:1041700080937E0280937F028093800280938102ED
:1041800080938202809383028093840280938502CD
:1041900081E080937D02E12C6894FF24F1F806E829
:1041A00012E020E030E040E050E060E070E080E0CD
:1041B00090E00E94C01E01E0811103C000E001C038
:1041C0000C2F802FDF91CF911F910F91FF90EF90D7
:1041D000DF90CF90BF90AF909F9008952F923F9225
:1041E0004F925F926F927F928F929F92AF92BF9207
:1041F000CF92DF92EF92FF920F931F93CF93DF93B3
:10420000CDB7DEB764970FB6F894DEBF0FBECDBF53
:10421000288B398B4A8B5B8B362E272E8C8B998380
:104220001B830A8337012601BD86AC86012B09F466
:1042300054C0E114F10409F452C0CE14DF0408F4B0
:1042400050C0AB2809F44FC09701EC823D839F8694
:104250008E86A888B988CA88DB88932C322C2C8853
:1042600073010A811B812A2D3B2D4C2D5D2D692D5B
:10427000732D822D99810E94C01E8823B9F1EE848E
:10428000FF840A2D1B2D2C2D3D2D492D532D622DE4
:1042900079818A819B81EC85FD850995882329F1A7
:1042A0002C813D8140E050E060E070E080E090E0F3
:1042B000E92CF32C022D19810E944D26A22EB32E3B
:1042C000C42ED52E962E372E282E998346185708A1
:1042D0004614570428F681E009C080E007C080E05A
:1042E00005C080E003C080E001C081E064960FB6A5
:1042F000F894DEBF0FBECDBFDF91CF911F910F911C
:10430000FF90EF90DF90CF90BF90AF909F908F90F5
:104310007F906F905F904F903F902F9008952F92D5
:104320003F924F925F926F927F928F929F92AF9245
:10433000BF92CF92DF92EF92FF920F931F93CF9392
:10434000DF93CDB7DEB769970FB6F894DEBF0FBE27
:10435000CDBF29833A834B835C836D837E838F83B8
:10436000988738012701EF2809F40BC10F2EF6E8D2
:104370002F2EF4E03F2EF02D29813A813170398FB4
:10438000288F40E050E060E070E0CB0129873A8759
:104390004B875C876D877E878F87988B29813A81D1
:1043A0004B815C816D817E818F819885A984BA84DF
:1043B000C12CD12CE12CF12C00E010E00E946226EF
:1043C0002987398B4A8B5B8B6C8B7D8B8E8B9F8B7C
:1043D000812C6894992491F8688D798D861A970AB2
:1043E0004814590408F44201A0907E02B0907F0264
:1043F000C0908002D0908102E0908202F09083020F
:104400000091840210918502298539894A895B8946
:104410006C897D898E899F890E946B26C1F10E94DB
:10442000941E882309F4B0C0888D998D892B21F4BE
:10443000811492E0990698F4E12C6894FF24F1F835
:1044400006E812E0298539894A895B896C897D896A
:104450008E899F890E94C01E882309F495C0E98532
:10446000E0937E02F989F0937F022A8920938002EB
:104470003B89309381024C89409382025D8950933D
:1044800083026E89609384027F897093850286E837
:10449000681682E0780671F0A401B301888D998DC9
:1044A0008A579D4F0E94802610927D0284149504A5
:1044B00009F469C02A9880917C0282FF10C0298586
:1044C00039894A895B896C897D898E899F8909E050
:1044D0000E943126642F752F422F532F04C0498527
:1044E00059896A897B8988E10E94581E882319F0BE
:1044F0002A9A80E049C08EEF0E94461EE6E8F2E06C
:10450000FA87E987E985FA858191FA87E9870E9428
:10451000461E29853A8522153305A1F78FEF0E94A3
:10452000461E8FEF0E94461E0E944E1E8F3FE1F7EF
:104530000E944E1E2A9A680C791C940140E050E0BB
:1045400060E070E080E090E0A980BA80CB80DC8001
:10455000ED80FE800F8118850E944D2629833A83C5
:104560004B835C836D837E838F83988748185908BB
:1045700031E030937D024114510409F0FDCE81E019
:1045800003C081E001C081E069960FB6F894DEBFF8
:104590000FBECDBFDF91CF911F910F91FF90EF9094
:1045A000DF90CF90BF90AF909F908F907F906F9053
:1045B0005F904F903F902F9008952F923F924F928F
:1045C0005F926F927F928F929F92AF92BF92CF92A3
:1045D000DF92EF92FF920F931F93CF93DF93CDB7AC
:1045E000DEB728970FB6F894DEBF0FBECDBF562EAC
:1045F000472E1A830983DC82CB82BE82AD82012BD7
:1046000009F448C0CD2809F447C0F886EF82A22EED
:10461000B32EC42ED52E982E892E170132C08F812D
:10462000988586159705D0F1730109811A812A2D85
:104630003B2D4C2D5D2D652D742D892D982D0E94BF
:104640008F21882309F458C0A301262D352F40E07F
:1046500050E060E070E080E090E0E52CF42C092D63
:10466000182D0E944D26A22EB32EC42ED52E562EC6
:10467000472E982E892EEF81F885E619F709F887DD
:10468000EF832114310421F18F819885892B61F406
:1046900081E032C080E030C080E02EC080E02CC0DD
:1046A00081E02AC081E028C0ED80FE800A2D1B2D0C
:1046B0002C2D3D2D452D542D692D782D89819A81E4
:1046C000EB81FC8109953C01892B09F0A8CFE8CF4B
:1046D000ED80FE800A2D1B2D2C2D3D2D452D542DBA
:1046E000692D782D89819A81EB81FC8109953C01A6
:1046F000892B09F099CFD6CF28960FB6F894DEBF54
:104700000FBECDBFDF91CF911F910F91FF90EF9022
:10471000DF90CF90BF90AF909F908F907F906F90E1
:104720005F904F903F902F9008955C9A5B9A8DE038
:104730008A95F1F700005C9808955B988DE08A9562
:10474000F1F700005C988DE08A95F1F700005B9A24
:104750008DE08A95F1F700005C9A089598E05B98E7
:104760002DE02A95F1F7000080FF02C05C9A01C09D
:104770005C985B9A2DE02A95F1F7000086959150A0
:1047800071F75B9854985C9A8DE08A95F1F7000078
:1047900029B1207130E081E0121613060CF080E0A0
:1047A0001216130614F4549A5C989DE09A95F1F74A
:1047B00000005B9A2DE02A95F1F700005B989DE0E0
:1047C0009A95F1F70000549A0895CF93811102C091
:1047D000C0E001C0C8E0683008F067E0C62BC093B5
:1047E00001010E9495238C2F80680E94AE230E94B5
:1047F0009D23CF9108959AB198619AB99BB1977E04
:104800009BB90E94E5230895CF93DF93C82FD62F3D
:104810000E94952384E40E94AE230E949D230E945F
:1048200095238C2F8370806C0E94AE238D2F0E9465
:10483000AE230E949D23DF91CF9108956A3030F41A
:10484000E62FF0E0EA53FE4F649101C060E0813052
:1048500031F4909100019078692B609300010E94DF
:1048600004240895882331F08091000180688093AA
:10487000000105C0809100018F7780930001609155
:10488000000181E00E9404240895CF93C0E060E01D
:104890008C2F0E940424CF5FC430C9F7CF910895B4
:1048A0005E9A5D9A8DE08A95F1F700005E98089512
:1048B0005D988DE08A95F1F700005E988DE08A950D
:1048C000F1F700005D9A8DE08A95F1F700005E9A9D
:1048D000089598E05D982DE02A95F1F7000080FF9B
:1048E00002C05E9A01C05E985D9A2DE02A95F1F7AC
:1048F00000008695915071F75D9856985E9A8DE00C
:104900008A95F1F7000029B1207430E081E0121699
:1049100013060CF080E01216130614F4569A5E98F3
:104920009DE09A95F1F700005D9A2DE02A95F1F748
:1049300000005D989DE09A95F1F70000569A089561
:10494000CF93811102C0C0E001C0C8E0683008F018
:1049500067E0C62BC09303010E9450248C2F80680F
:104960000E9469240E945824CF9108959AB19066BC
:104970009AB99BB19F799BB90E94A0240895CF93C7
:10498000DF93C82FD62F0E94502484E40E9469240C
:104990000E9458240E9450248C2F8370806C0E94A7
:1049A00069248D2F0E9469240E945824DF91CF91A1
:1049B00008956A3030F4E62FF0E0E053FE4F649142
:1049C00001C060E0813031F4909102019078692B50
:1049D000609302010E94BF240895882331F08091E2
:1049E000020180688093020105C0809102018F77E7
:1049F000809302016091020181E00E94BF2408952A
:104A0000CF93C0E060E08C2F0E94BF24CF5FC43002
:104A1000C9F7CF9108951092C50083E38093C40035
:104A200086E08093C20088E98093C1000895CF9307
:104A3000C82F8A3019F48DE00E941725E0ECF0E0D1
:104A4000808185FFFDCFC093C600CF910895CF939D
:104A5000DF93EC018881882331F021960E9417258D
:104A600089918111FBCFDF91CF910895CF93DF938F
:104A7000EC012196FC018491882339F00E941725CE
:104A8000FE01849121968111F9CFDF91CF91089594
:104A90001895DB018F939F930E94B225BF91AF9130
:104AA000A29F800D911DA39F900DB29F900D112488
:104AB0000895AA1BBB1B51E107C0AA1FBB1FA61765
:104AC000B70710F0A61BB70B881F991F5A95A9F7B7
:104AD00080959095BC01CD01089597FB072E16F4A3
:104AE000009407D077FD09D00E94592507FC05D016
:104AF0003EF4909581959F4F0895709561957F4FF5
:104B00000895A1E21A2EAA1BBB1BFD010DC0AA1F0E
:104B1000BB1FEE1FFF1FA217B307E407F50720F026
:104B2000A21BB30BE40BF50B661F771F881F991FA1
:104B30001A9469F760957095809590959B01AC01EA
:104B4000BD01CF010895A29FB001B39FC001A39FF3
:104B5000700D811D1124911DB29F700D811D1124B6
:104B6000911D08950E94A325A59F900DB49F900DBF
:104B7000A49F800D911D11240895DF93CF931F935F
:104B80000F939A9DF02D219FF00D8B9DF00D8A9D26
:104B9000E02DF10D039FF00D029FE00DF11D4E9DE4
:104BA000E00DF11D5E9DF00D4F9DF00D7F936F9315
:104BB000BF92AF925F934F93D5010E94A3258B01C3
:104BC000AC01D7010E94A325EB01E80FF91FD60124
:104BD0000E940D262F913F91D6010E94A325C60F5A
:104BE000D71FE81FF91FAF91BF910E940D262F918B
:104BF0003F910E94A325C60FD71FE81FF91FD601BA
:104C00000E94A325E60FF71F9801BE01CF011124D2
:104C10000F911F91CF91DF9108950E94A325460F18
:104C2000571FC81FD91F08F4319608950F930830F5
:104C300090F0982F872F762F652F542F432F322FE8
:104C400022270850F4CF220F331F441F551F661F21
:104C5000771F881F991F0A95B2F70F91089597FB48
:104C600010F8169400080F93083098F00850232F7E
:104C7000342F452F562F672F782F892F902DF4CF63
:104C800005949795879577956795579547953795A7
:104C900027950A95AAF70F9108952A0D3B1D4C1DE3
:104CA0005D1D6E1D7F1D801F911F08950024A7FDAF
:104CB00000942A0F301D401D501D601D701D801D69
:104CC000901D08952A193B094C095D096E097F0959
:104CD000800B910B08952A153B054C055D056E056B
:104CE0007F058007910708950024A7FD00942A17E7
:104CF0003005400550056005700580059005089554
:104D0000FB01DC0102C001900D9241505040D8F7E8
:104D10000895DC0101C06D9341505040E0F70895C3
:104D2000FC018191861721F08823D9F799270895EE
:104D30003197CF010895FB01DC018D91019080191D
:104D40000110D9F3990B0895FB01DC010D900020AF
:104D5000E9F711974150504028F0019000200D9242
:104D6000C9F708951C920895FB01DC0141505040A1
:104D700030F08D910190801919F40020B9F7881B4B
:104D8000990B0895FB01DC014150504048F001901F
:104D90000D920020C9F701C01D9241505040E0F72C
:104DA0000895FC0181E090E00190061609F4CF011E
:104DB0000020D1F701970895BB274A3031F4992399
:104DC00022F4BDE2909581959F4F0C94E826BB2775
:104DD000FB015527AA27880F991FAA1FA41710F0B7
:104DE000A41B83955051B9F7A05DAA3308F0A95DC3
:104DF000A193009779F7B111B1931192CB010C9463
:104E00002829AEE0B0E0E7E0F7E20C94E0290D8954
:104E10001E898F89988D26E02C831A83098397FF3A
:104E200002C080E090E801979E838D83AE01455ECD
:104E30005F4F698D7A8DCE0101960E9431274D8199
:104E40005E8157FD0AC02F813885421753070CF445
:104E50009A01F801E20FF31F10822E96E4E00C9401
:104E6000FC29ABE0B0E0E7E3F7E20C94D2296C0157
:104E70007B018A01FC0117821682838181FFCCC1EC
:104E8000CE0101963C01F6019381F70193FD8591D6
:104E900093FF81917F01882309F4BAC1853239F4E7
:104EA00093FD859193FF81917F01853229F4B601AD
:104EB00090E00E943829E7CF912C212C312CFFE182
:104EC000F315D8F08B3279F038F4803279F08332F0
:104ED000A1F4232D20611DC08D3261F0803369F46F
:104EE000232D216016C0832D8260382EE32DE460CF
:104EF0003E2E2AC0F32DF8601DC037FC2DC020EDDA
:104F0000280F2A3040F08E32B9F436FC81C1232DAF
:104F10002064322E19C036FE06C08AE0989E200D0D
:104F20001124922E11C0EAE02E9E200D1124222E73
:104F3000F32DF0623F2E08C08C3621F4832D80685B
:104F4000382E02C0883641F4F70193FD859193FF16
:104F500081917F018111B3CF982F9F7D955493301C
:104F600028F40C5F1F4F9FE399830DC0833631F007
:104F7000833771F0833509F059C021C0F801808171
:104F800089830E5F1F4F88248394912C530113C093
:104F90002801F2E04F0E511CF801A080B18036FECE
:104FA00003C0692D70E002C06FEF7FEFC5010E9462
:104FB0001D294C018201F32DFF773F2E16C02801D9
:104FC00022E0420E511CF801A080B18036FE03C0E1
:104FD000692D70E002C06FEF7FEFC5010E941229BA
:104FE0004C01F32DF0683F2E820133FC1BC0822D53
:104FF00090E088169906B0F4B60180E290E00E9435
:1050000038292A94F4CFF50137FC859137FE819138
:105010005F01B60190E00E94382921102A9421E016
:10502000821A91088114910471F7E8C0843611F056
:10503000893641F5F80137FE07C0608171818281B0
:1050400093810C5F1F4F08C060817181072E000C97
:10505000880B990B0E5F1F4FF32DFF763F2E97FFA6
:1050600009C090958095709561957F4F8F4F9F4FA8
:10507000F0683F2E2AE030E0A3010E947429882EB8
:10508000861845C0853731F4232D2F7EB22E2AE0B5
:1050900030E025C0932D997FB92E8F36C1F018F4DA
:1050A000883579F0B5C0803719F0883721F0B0C065
:1050B000E92FE061BE2EB4FE0DC0FB2DF460BF2EC3
:1050C00009C034FE0AC0292F2660B22E06C028E08F
:1050D00030E005C020E130E002C020E132E0F8011C
:1050E000B7FE07C060817181828193810C5F1F4F81
:1050F00006C06081718180E090E00E5F1F4FA301C8
:105100000E947429882E8618FB2DFF773F2E36FECD
:105110000DC0232D2E7FA22E891458F434FE0BC00F
:1051200032FC09C0832D8E7EA82E05C0B82CA32C7E
:1051300003C0B82C01C0B92CA4FE0FC0FE01E80DBD
:10514000F11D8081803321F49A2D997EA92E09C00A
:10515000A2FE06C0B394B39404C08A2D867809F0E9
:10516000B394A3FC11C0A0FE06C0B21488F4280CAE
:10517000922C9B180EC0B21460F4B60180E290E04D
:105180000E943829B394F7CFB21418F42B1802C038
:10519000982C212CA4FE10C0B60180E390E00E9460
:1051A0003829A2FE17C0A1FC03C088E790E002C026
:1051B00088E590E0B6010CC08A2D867859F0A1FEF2
:1051C00002C08BE201C080E2A7FC8DE2B60190E054
:1051D0000E943829891438F4B60180E390E00E94D7
:1051E00038299A94F7CF8A94F301E80DF11D808154
:1051F000B60190E00E9438298110F5CF222009F4F1
:1052000042CEB60180E290E00E9438292A94F6CF7F
:10521000F6018681978102C08FEF9FEF2B96E2E126
:105220000C94EE29FC010590615070400110D8F7F4
:10523000809590958E0F9F1F0895FC0161507040DE
:1052400001900110D8F7809590958E0F9F1F0895BB
:10525000DC01FC01672F71917723E1F7329704C0DD
:105260007C916D9370836291AE17BF07C8F3089568
:105270000F931F93CF93DF93FB01238121FD03C085
:105280008FEF9FEF2CC022FF16C0468157812481EB
:1052900035814217530744F4A081B1819D012F5FEE
:1052A0003F4F318320838C93268137812F5F3F4F7F
:1052B0003783268314C08B01EC01FB010084F18548
:1052C000E02D0995892BE1F6D80116968D919C91D8
:1052D0001797019617969C938E931697CE01DF91A0
:1052E000CF911F910F910895FA01AA27283051F10B
:1052F000203181F1E8946F936E7F6E5F7F4F8F4F07
:105300009F4FAF4FB1E03ED0B4E03CD0670F781F65
:10531000891F9A1FA11D680F791F8A1F911DA11D4A
:105320006A0F711D811D911DA11D20D009F4689483
:105330003F912AE0269F11243019305D3193DEF62B
:10534000CF010895462F4770405D4193B3E00FD0E1
:10535000C9F7F6CF462F4F70405D4A3318F0495DCC
:1053600031FD4052419302D0A9F7EACFB4E0A695AF
:105370009795879577956795BA95C9F700976105D1
:10538000710508959B01AC010A2E06945795479527
:1053900037952795BA95C9F7620F731F841F951F1C
:1053A000A01D08952F923F924F925F926F927F922D
:1053B0008F929F92AF92BF92CF92DF92EF92FF9225
:1053C0000F931F93CF93DF93CDB7DEB7CA1BDB0BD1
:1053D0000FB6F894DEBF0FBECDBF09942A88398876
:1053E00048885F846E847D848C849B84AA84B9847D
:1053F000C884DF80EE80FD800C811B81AA81B98189
:10540000CE0FD11D0FB6F894DEBF0FBECDBFED019C
:065410000895F894FFCF9F
:10541600FF0FFF0F01030507090E10121416181CC3
:105426001E484954533A0A002F00466F7263653A84
:10543600200025730A00466F7263652077697468D9
:1054460020747970653A2000496E746572727570C1
:10545600742E2E00646174612E747874004C2E0ACA
:10546600004572726F72206C6F6767696E672E00F7
:10547600427574746F6E20707265737365642E2E38
:02548600000024
:00000001FF
